:020000040800F2
:10000000E020002001010008AB0B00085D0B000898
:10001000A70B0008AD0900081F1B00080000000026
:10002000000000000000000000000000990F000820
:10003000B109000800000000310C0008AD100008F4
:100040001B0100081B0100081B0100081B01000820
:100050001B0100081B0100081B0100081B01000810
:100060001B0100081B0100081B0100081B01000800
:100070001B0100081B0100081B0100081B010008F0
:100080001B0100081B0100081B0100081B010008E0
:100090001B0100081B0100081B0100081B010008D0
:1000A0001B0100081B0100081B0100081B010008C0
:1000B00011110008D11200080D1300081B010008DF
:1000C0001B0100081B0100081B0100081B010008A0
:1000D0001B010008911400083D150008B91500081F
:1000E0001B0100081B0100081B010008DFF80CD0F1
:1000F00000F0ECFB00480047D52A0008E020002073
:100100000648804706480047FEE7FEE7FEE7FEE7B1
:10011000FEE7FEE7FEE7FEE7FEE7FEE7B1100008B8
:10012000ED00000840EA01039B0703D009E008C97D
:10013000121F08C0042AFAD203E011F8013B00F8AC
:10014000013B521EF9D2704710B54843044602F0F5
:1001500027FD002805D00021002C02D0641E015587
:10016000FAE710BDF0B480EA0102D40F4200B2EB0E
:10017000410F02D20246084611464A0042D0C30D42
:10018000DDB2C1F3C752AD1A202D35DAC1F3160125
:1001900041F4000204B15242C5F1200602FA06F110
:1001A0002A411044B3EBD05F23D0C4B1012DA0EBA2
:1001B000C35009DCF0BC4FF0004202EAC352DBB28C
:1001C00000F5000000F0DFBA400000F1807000EBA5
:1001D000C350A0F1807040EAD170490009E049089D
:1001E00041EAC071A0EBC35000F50000400800EBED
:1001F000C350F0BC00F0BEBA6142012202EB4101E3
:10020000001BF6E7F0BC704781F00041AAE780F0E0
:100210000040A7E730B480EA010202F0004530F068
:10022000004221F0004013D090B1C30DD40DC2F3B1
:100230001601C0F31600E41A41F4000140F4000274
:100240007D34914201D3641C00E04900002C02DAA5
:1002500030BC002070474FF400000023914201D3CE
:10026000891A034340084FEA4101F7D151B1914245
:1002700002D14FF0004105E002D24FF0010101E050
:100280006FF0010103EBC450284430BC00F072BA97
:100290002DE9FE4F804681EA0300C00F0C46009016
:1002A00021F0004123F00045B8EB0200A94105D23E
:1002B0004046214690461C460B46024623F000402D
:1002C000104347D0270DC7F30A00C3F30A51029029
:1002D000401A019040286BDAC3F3130040F4801BEE
:1002E0000098924620B10023D2EB030A63EB0B0B7C
:1002F00001985946C0F14002504600F01AFA0646ED
:100300000D4650465946019A00F022FA10EB0800BB
:100310006141002487EA115284EAE7731A4340D00E
:10032000009A62B3019A012A4FEA075215DC001BBA
:1003300061EB02014FF0004202EA0752CDE90042B0
:10034000001C41F5801132462B4600F059FA03B0EB
:10035000BDE8F08F40462146F9E7001B61EB020142
:10036000001C41F5801300185B412018A2F500170E
:1003700047EB030140EAD570B6196D4111E06D08F5
:100380004FEA360645EAC0754FEA0752001B61EB9B
:100390000201001C41F5801149084FEA30000019A4
:1003A000514132462B4603B0BDE8F04F00F019BA78
:1003B0000098012240000023D0EB020263EBE073BF
:1003C000009821464FEAE074B8EB000061EB0401AD
:1003D000E9E783F000435BE781F0004158E72DE94E
:1003E000FE4F81EA030404F0004421F00041009430
:1003F0004FF0000B23F0004350EA01045ED052EAB4
:1004000003045BD0C3F30A54C1F30A552C44A4F28D
:10041000F3340194A0FB0254C1F3130141F48011A1
:10042000C3F3130343F4801301FB024400FB034EA8
:10043000840A970A44EA815447EA8357A4FB076871
:1004400002958D0A05FB07854FEA932C04FB0C549B
:100450002705029D4FEA065847EA1637B5EB08050F
:100460006EEB070C870E920E47EA811742EA831261
:10047000A7FB0201B6EB0B0164EB00042B0D43EA72
:100480000C335E1844EB1C50DA465146E7FB020180
:10049000C5F313044FEA0B3343EA14534FEA043213
:1004A000019C43EA0603A4F10C040294009CCDE9EC
:1004B00000B400F0A5F903B0BDE8F08F00200146BC
:1004C000F9E72DE9F04D81EA030404F0004B21F037
:1004D000004514464FF0000A23F0004150EA05029F
:1004E00020D054EA01021DD0C5F30A570246C5F3D5
:1004F0001303C1F31300C1F30A5640F4801543F40B
:100500008013A7EB0608101BD64608F2FD3873EBE4
:10051000050002D308F1010801E092185B41B8F12F
:10052000000F03DA00200146BDE8F08D00204FF4F3
:100530008011064684460EE0171B73EB050705D3B2
:10054000121B63EB050306434CEA010C49084FEA12
:10055000300092185B4150EA0107EDD152EA0300E6
:1005600012D082EA040083EA0501084305D0101B7B
:10057000AB4106D20122002306E000224FF00043E7
:1005800002E06FF0010253101AEB06004CEB085129
:1005900010EB0A0041EB0B01BDE8F04D00F021B972
:1005A000C10F80EAE0700844CA079623002100F0DA
:1005B000EAB896230022114600F0E5B800F00042A8
:1005C00030F000400AD0C10D01F56071C0F3160093
:1005D00042EA0151C208400711437047002001461A
:1005E0007047000030B5041E71F1000404DB4FF0C9
:1005F0000044404264EB0101141E73F1000405DB6A
:100600001C464FF00043524263EB04038B4208BF89
:10061000824230BD30B5041E71F1000404DB4FF09E
:100620000044404264EB0101141E73F1000405DB39
:100630001C464FF00043524263EB0403994208BF4B
:10064000904230BD01F0004330B421F0004150EA47
:10065000010206D00A0DA2F56072C1F31301002A4F
:1006600002DC30BC00207047440F44EAC104C100E2
:10067000E01830BC00EBC25000F07CB8002801DB71
:10068000C0F10040002901DBC1F100418142704707
:10069000002801DBC0F10040002901DBC1F100416D
:1006A0008842704730B50B460146002020220124C5
:1006B00009E021FA02F59D4205D303FA02F5491B30
:1006C00004FA02F52844151EA2F10102F1DC30BD46
:1006D0002DE9F05F0546002092469B468846064677
:1006E000814640241BE0284641464746224600F00A
:1006F000FFF853465A46C01A914110D31146184686
:10070000224600F016F82D1A67EB01084F462246E4
:100710000120002100F00DF817EB00094E41201ECA
:10072000A4F10104DFDC484631462A464346BDE8D1
:10073000F09F202A04DB203A00FA02F100207047E3
:100740009140C2F1200320FA03F31943904070470F
:10075000202A06DBCB17203A41FA02F043EAE07385
:1007600006E041FA02F3D040C2F120029140084372
:10077000194670470029A8BF7047401C490008BFB0
:1007800020F00100704710B4B0FA80FC00FA0CF0C1
:1007900050EA010404BF10BC704749B1CCF12004F9
:1007A00021FA04F411FA0CF118BF01212143084386
:1007B000A3EB0C01CB1D4FEA00614FEA102042BFB2
:1007C000002010BC704700EBC35010440029A4BFA8
:1007D00010BC7047401C490008BF20F0010010BC4D
:1007E000704710B5141E73F1000408DA401C41F183
:1007F000000192185B411A4301D120F0010010BDA5
:100800002DE9F04D92469B4611B1B1FA81F202E01A
:10081000B0FA80F220329046FFF78BFF04460F4675
:1008200040EA0A0041EA0B0153465A46084313D0F6
:10083000114653EA010019D0C8F14002504600F0B9
:1008400057F805460E46504659464246FFF771FF97
:10085000084305D0012004E020463946BDE8F08D6C
:100860000020054346EAE0762C4337430A986305A7
:10087000E40AA0EB08000022FD0A44EA47540A30CB
:1008800002D500200146E9E7010510196941DDE9BB
:10089000084500196941BDE8F04DA2E7C1F30A52CD
:1008A000C1F3130140F2FF3341F480119A4202DA9E
:1008B00000200146704740F233439A42A2F233428D
:1008C00002DC524200F014B8FFF733BF064C074D6C
:1008D00006E0E06840F0010394E807009847103410
:1008E000AC42F6D3FFF706FCA82F0008C82F00087B
:1008F000202A04DB203A21FA02F00021704721FA75
:1009000002F3D040C2F120029140084319467047DB
:1009100008B50121042000F0ADF90121082000F004
:10092000A9F90121102000F0A5F93120ADF800004F
:1009300010208DF8030003208DF802006946174847
:1009400000F060F84020ADF8000004208DF80300AE
:1009500003208DF802006946104800F053F82F205C
:10096000ADF8000010208DF8030003208DF8020080
:1009700069460B4800F046F80120ADF80000102051
:100980008DF8030003208DF802006946054800F049
:1009900039F801200449086008BD00000008014042
:1009A00000100140000C01409401214200BFFEE70D
:1009B0007047000010B5002400BF0FE00D4850F84C
:1009C00024000078012808D10B4951F82400804701
:1009D0000020084951F824100870641C054890F85C
:1009E0000002A042EADC0548006810B90120044971
:1009F000087010BDE4000020E4010020388121428D
:100A0000410000202DE9F04102460025002600208B
:100A100000230024002791F803C00CF00F0591F883
:100A200003C00CF0100CBCF1000F03D091F802C011
:100A30004CEA050591F800C0BCF1000F31D01468F4
:100A400000202BE04FF0010C0CFA00F3B1F800C0CD
:100A50000CEA03069E4220D183004FF00F0C0CFAE3
:100A600003F7BC4305FA03FC4CEA040491F803C005
:100A7000BCF1280F06D14FF0010C0CFA00FCC2F8B3
:100A800014C00AE091F803C0BCF1480F05D14FF043
:100A9000010C0CFA00FCC2F810C0401C0828D1D38D
:100AA0001460B1F800C0BCF1FF0F34DD54680020C1
:100AB0002EE000F1080C4FF0010808FA0CF3B1F831
:100AC00000C00CEA03069E4221D183004FF00F0CB8
:100AD0000CFA03F7BC4305FA03FC4CEA040491F852
:100AE00003C0BCF1280F05D100F1080C08FA0CF87E
:100AF000C2F8148091F803C0BCF1480F07D100F18F
:100B0000080C4FF0010808FA0CF8C2F81080401CDD
:100B10000828CED35460BDE8F0814161704701617F
:100B20007047000030B500BF0A4800680128FBD0BC
:100B300002F06CF8084908600024002504E006482B
:100B400000680444681CC5B20A2DF8DB0A20B4FB17
:100B5000F0F030BD180121422C00002000BFFEE75C
:100B600010B50346190903F00F02092903DC01F14E
:100B70003004E1B206E00A2904DB0F2902DC01F1AE
:100B80003704E1B2092A03DC02F13004E2B206E0E4
:100B90000A2A04DB0F2A02DC02F13704E2B2CCB2EB
:100BA00042EA042010BD00BFFEE7704770B5002187
:100BB00000230F22C47804B3154C246804F4E064C5
:100BC000C4F5E064210AC1F10403CA40447804FA80
:100BD00003F184781440214309010E4C0678A15595
:100BE000047804F01F050124AC4005786D11AD00B8
:100BF00005F1E025C5F8004109E0047804F01F057F
:100C00000124AC40044D0678761145F8264070BDAD
:100C10000CED00E000E400E080E100E00249014367
:100C2000024A1160704700000000FA050CED00E078
:100C30007047000029B1064AD2690243044BDA61C9
:100C400004E0034AD2698243014BDA617047000035
:100C50000010024029B1064A12690243044B1A618E
:100C600004E0034A12698243014B1A617047000095
:100C70000010024029B1064A92690243044B9A616E
:100C800004E0034A92698243014B9A617047000075
:100C90000010024029B1064AD2680243044BDA60D0
:100CA00004E0034AD2688243014BDA6070470000D7
:100CB0000010024030B500210022002400232D4DF9
:100CC0006D6805F00C0121B1042905D0082923D154
:100CD00005E0294D056022E0274D05601FE0254D08
:100CE0006D6805F47012234D6D6805F4803402259B
:100CF00005EB92421CB9214D554305600BE01D4D9B
:100D00006D6805F400351DB11C4D5543056002E0CA
:100D1000194D5543056002E0174D056000BF00BF47
:100D2000144D6D6805F0F0010909154D6B5C0568FF
:100D3000DD4045600F4D6D6805F4E061090A104D16
:100D40006B5C4568DD4085600A4D6D6805F4605157
:100D5000C90A0B4D6B5C4568DD40C560054D6D688B
:100D600005F44041890B074D6B5CC568B5FBF3F595
:100D7000056130BD0010024000127A0000093D00FC
:100D8000140000202400002070B504460D465A20AF
:100D900008490870A5204870042088708320C87016
:100DA000200A08714C7108468571072100F0A8FBE4
:100DB00070BD0000D406002008B501211C20FFF7FB
:100DC00059FF4FF40060ADF8000010208DF80300CB
:100DD00003208DF8020069461048FFF713FE4FF418
:100DE00000610E48FFF79BFE8020ADF800006946C9
:100DF0000B48FFF707FE80210948FFF790FE4FF4EC
:100E00008040ADF8000004208DF8030003208DF829
:100E1000020069460348FFF7F5FD08BD00080140E0
:100E200000100140000C014000B587B001210420F2
:100E3000FFF720FF01214804FFF7FCFE0420ADF876
:100E4000180018208DF81B0003208DF81A0006A941
:100E50003648FFF7D7FD04213448FFF760FE08202D
:100E6000ADF8180004208DF81B0006A92F48FFF7E5
:100E7000C9FD0220ADF8180010208DF81B0006A94E
:100E80002A48FFF7BFFD02212848FFF746FE284801
:100E900000F004FC2748006802900020ADF8140020
:100EA000ADF80C00ADF80E000C20ADF81200224891
:100EB000007820B1012806D002280ED108E00020D9
:100EC000ADF8100009E04FF4C060ADF8100004E088
:100ED0004FF48060ADF8100000BF00BF02A91448B5
:100EE00000F086FC40F22551114800F0BBFB0122C6
:100EF00040F225510E4800F056FC26208DF80400E3
:100F000002208DF805008DF8060001208DF80700FD
:100F100001A8FFF74BFE0121054800F0B2FB0120BC
:100F20000649086000F07EFA07B000BD00080140E5
:100F300000440040A0000020A400002084012142C1
:100F400070B504460D460120104908600BE000BF53
:100F500080210F4800F0F0FB0028F9D014F8011BA5
:100F60000B4800F0D8FD281EA5F10101CDB2EED14D
:100F700000BF4021064800F0DFFB0028F9D0012027
:100F80000449087000200149086070BD84012142B5
:100F900000440040B7000020704710B500F002F890
:100FA00010BD00000CB5002001900090334800688F
:100FB00040F480303149086000BF3048006800F4D8
:100FC000003000900198401C0190009818B90198D9
:100FD000B0F5A06FF1D12948006800F4003010B1DD
:100FE0000120009001E0002000900098012843D1EA
:100FF0002348006840F01000214908600846006856
:1010000020F0030008600846006840F00200086015
:101010001A484068194948600846406848600846D0
:10102000406840F4806048600846406820F47C10C6
:1010300048600846406840F4E81048600846006888
:1010400040F08070086000BF0C48006800F000703D
:101050000028F9D00948406820F00300074948609B
:101060000846406840F00200486000BF03484068FE
:1010700000F00C000828F9D10CBD0000001002405F
:1010800000200240042808D14FF0E021096941F016
:1010900004014FF0E022116107E04FF0E0210969FF
:1010A00021F004014FF0E022116170477047000009
:1010B00010B51348006840F0010011490860084667
:1010C0004068104908400E494860084600680E49CB
:1010D00008400B4908600846006820F4802008603A
:1010E0000846406820F4FE0048604FF41F00886006
:1010F000FFF753FF4FF000600449086010BD000087
:10110000001002400000FFF8FFFFF6FE08ED00E0CF
:1011100010B50121880700F016F900287FD00121C1
:10112000880700F001F93E480068401C3C4908600F
:101130003C480068401C3B4908603B48007858B96F
:10114000374800686421B0FBF1F201FB1200C0B91E
:1011500001203649087014E031480068042810D393
:1011600033480068401C324908600846006802287D
:1011700004D10020086001202E4908700020284971
:10118000086028480068642805DB01202A490870A7
:101190000020244908602948007801281CD12848EB
:1011A0000068401C2649086008460068B0F5617F69
:1011B00004D380212348FFF7B0FC0DE020480068ED
:1011C000B0F57A7F08D300201C4908701C490860DC
:1011D00080211C48FFF7A3FC1B48007801281ED182
:1011E0001A480068401C1949086008460068B0F5B4
:1011F000617F05D34FF400611548FFF78EFC0EE0C8
:1012000012480068B0F57A7F09D300200E490870B3
:101210000E4908604FF400610D48FFF780FC10BDD7
:10122000D0000020C000002040000020BC000020B2
:10123000D8000020BD000020C40000209000002045
:10124000C80000200010014091000020CC000020C8
:10125000000801407FB505460C4601210846FFF70E
:10126000E9FCADF80850ADF804400020ADF80A00E4
:10127000ADF8060001A94FF0804000F081F801228E
:101280001146900700F070F81C208DF80000002037
:101290008DF8010003208DF8020001208DF8030075
:1012A0006846FFF783FC0121880700F040F80449F5
:1012B000044801F0C1FC0449044801F0BDFC7FBDB5
:1012C000BD00002065280008BC000020F9250008AA
:1012D00010B50121094800F036F870B10121074826
:1012E00000F022F80021054800F021F8012004490F
:1012F0000860044908700449087010BD00040040EB
:1013000084012142AA000020B900002010B501216B
:10131000044800F018F8012803D10121014800F029
:1013200003F810BD00080040CA430282704721B193
:10133000028842F00102028004E002884FF6FE7348
:101340001A400280704730B5024600200023002476
:10135000158A05EA0103958905EA010413B10CB168
:10136000012000E0002030BD1AB183890B43838146
:1013700002E083898B43838170478184704700003A
:10138000002202881D4B98420ED01D4B98420BD074
:10139000B0F1804F08D01B4B984205D01A4B9842B1
:1013A00002D01A4B984204D14FF68F731A404B88E3
:1013B0001A43174B984207D0164B984204D04FF669
:1013C000FF431A40CB881A4302808B8883850B88A1
:1013D00003850A4B98420BD0094B984208D00E4B1C
:1013E000984205D00D4B984202D00D4B984201D146
:1013F0000B7A03860123838270470000002C014092
:10140000003401400004004000080040000C00408F
:101410000010004000140040004001400044014022
:10142000004801401FB501210220FFF703FC1648C8
:10143000008800EB80004FF6FF7101EA4000ADF834
:10144000080041F61F40ADF804000020ADF80A0086
:10145000ADF8060001A90D48FFF792FF01221146E1
:101460000A48FFF781FF1D208DF8000002208DF84B
:10147000010003208DF8020001208DF8030068466A
:10148000FFF794FB1FBD0000A600002000040040F1
:1014900010B540F22551174800F05BF958B11548D6
:1014A00000F034FBC1B2144842784078401C124B23
:1014B0005870D81C815440F226610E4800F049F95A
:1014C000B8B10E4800780D49497888420BD00B48D6
:1014D00002780078401C094B1870D81C815C0548C4
:1014E00000F019FB05E0002240F22661014800F0FF
:1014F0005AF910BD00380140D7090020D408002057
:1015000070B505460E46002400BF0AE0295D094873
:1015100042784078401C074B5870D81C8154601C9E
:10152000C4B2B442F2DB012240F22661024800F06C
:101530003AF970BDD40800200038014070B540F27F
:101540002551184800F005F950B30721154800F05F
:10155000F3F820B1012402201349087000E00024B0
:10156000104800F0D3FAC5B21048008840F2FF716D
:10157000884215DAA4B90E480C49098845540B482D
:101580000088401C0949088001210A48FFF7CCFE69
:1015900000210848FFF7F1FE01210648FFF7C7FECA
:1015A00070BD000000440040B9000020A8000020E9
:1015B000DA0A00200004004010B540F22551174817
:1015C00000F0C7F858B1154800F0A0FAC1B21448AD
:1015D00042784078401C124B5870D81C815440F21D
:1015E00026610E4800F0B5F8B8B10E4800780D49F4
:1015F000497888420BD00B4802780078401C094B90
:101600001870D81C815C054800F085FA05E00022BE
:1016100040F22661014800F0C6F810BD00480040C5
:10162000EB040020E803002070B505460E460024B8
:1016300000BF0AE0295D094842784078401C074B0A
:101640005870D81C8154601CC4B2B442F2DB012231
:1016500040F22661024800F0A6F870BDE8030020C1
:101660000048004010B50022002340F66A14A14251
:1016700000D100BF0A1201249440A3B2DC430480CD
:1016800010BD21B1828942F40052828104E0828936
:101690004DF6FF731A4082817047000010B5044672
:1016A0002048844209D101218803FFF7F3FA002181
:1016B0004FF48040FFF7EEFA32E01B48844209D134
:1016C00001214804FFF7C6FA00214FF40030FFF76C
:1016D000C1FA25E01548844209D101218804FFF7A9
:1016E000B9FA00214FF48020FFF7B4FA18E010484F
:1016F000844209D10121C804FFF7ACFA00214FF45C
:101700000020FFF7A7FA0BE00A48844208D1012124
:101710000805FFF79FFA00214FF48010FFF79AFAAF
:1017200010BD000000380140004400400048004067
:10173000004C00400050004002460020B1F5007F00
:1017400000D100BF13880B400BB1012000E0002046
:10175000704770B50246002400230025002040F6A3
:101760006A16B14200D100BFC1F3421501F01F0358
:10177000012606FA03F3012D02D19689334006E0D3
:10178000022D02D1168A334001E0968A33400C12B2
:10179000012606FA04F41688344013B10CB1012076
:1017A00000E0002070BDF0B50346002400260025AF
:1017B000002040F66A17B94200D100BF1846C1F3B5
:1017C000421401F01F06012707FA06F5012C01D18A
:1017D0000C3004E0022C01D1103000E014301AB1BA
:1017E00007682F43076002E00768AF430760F0BD5A
:1017F0002DE9F04786B005460E460024A24600BFFC
:10180000A1460027B08900B100BF2F462C8A4CF6B4
:10181000FF700440F08804432C82AC894EF6F3102C
:101820000440B08831890843718908430443AC817E
:10183000AC8A4FF6FF400440B0890443AC8201A853
:10184000FFF738FA1F48874202D1DDF810A001E007
:10185000DDF80CA0A88900F4004040B10AEBCA00F2
:1018600000EB0A1031684900B0FBF1F807E00AEB21
:10187000CA0000EB0A1031688900B0FBF1F864205F
:10188000B8FBF0F004012009642101FB1089A8894C
:1018900000F4004040B1322000EBC900B0FBF1F091
:1018A00000F00700044308E0322000EB0910642137
:1018B000B0FBF1F000F00F0004432C8106B0BDE84E
:1018C000F08700000038014070B5044600257848D4
:1018D00084421BD177480088072817DD002076490D
:1018E00008700CE07549744A12788818042274A1B3
:1018F00001F050FA70480078401C6F4908706D483C
:10190000008808386C4909788842EBDC6E488442CC
:101910007ED16A49684A1278881805226B4901F01D
:1019200039FA012839D16548007A012804D168497B
:1019300008706849086013E06048007A022806D100
:1019400000206349087002206249086008E05B4893
:10195000007A28B902205E49087003205D490860BA
:101960005B4800785C490978884212D05848007872
:1019700020B1012806D0022809D107E0312000F06B
:10198000D1F805E0302000F0CDF801E000E000BF24
:1019900000BF4F480078504908704849464A1278BD
:1019A000881806224D4901F0F5F901281AD143485B
:1019B000807A4B490860084600684A4909688842AD
:1019C0000CD03E48807A20B13C49887A00F0D2F8A9
:1019D00000E000BF42480068424908604048006893
:1019E000404908603B48006802284ED13349324ADA
:1019F0001278881806223C4901F0CCF9012821D13F
:101A000000F0BAFE394908604FF08041374800E0E5
:101A10004DE00068FEF73CFE14D22849897A274A37
:101A2000527A41EA0220FEF7BBFD06462F480168C4
:101A30003046FEF72DFE05D22D48006810B9012072
:101A40002C4908701D491C4A1278881806222A4918
:101A500001F0A0F9012818D100F08EFE234908609A
:101A60001649897A154A527A41EA0220FEF798FD12
:101A700006461E4801683046FEF700FE05D21C48A7
:101A8000006810B901201D4908700C490A4A1278F3
:101A9000881806221A4901F07DF9012807D1074864
:101AA000007A012803D1174800681749086070BD03
:101AB000004400406600002098000020EE05002051
:101AC000434D443D00000000003801406800002004
:101AD000990000208C0000209A0000206D0000205A
:101AE0009C00002088000020730000205C00002083
:101AF00038812142900000207900002091000020D0
:101B00007F0000203000002060000020014688880F
:101B1000C0F308007047C1F308028280704700BF1D
:101B2000FEE7000010B5044625201149087030205A
:101B30004870312088702320C870572008714320D6
:101B40004871532088715220C871322008723520A4
:101B5000487230208872C872084604732A2048737D
:101B600088730D20C87310210148FFF7E9F910BDF3
:101B7000DA1200202DE9F041044604EB4410450040
:101B8000280AFEF7EDFF0646E8B2FEF7E9FF074632
:101B90002520184908703020487031208870232093
:101BA000C870572008714420487188713020C8716E
:101BB000087232204872332088723820C872302070
:101BC00008734873322088733320C8733820087430
:101BD000380A48748F74300AC8740E752A20487504
:101BE00088750D20C87518210248FFF7A9F9BDE8CE
:101BF000F0810000DA1200200FB4084B10B504A9E0
:101C000002AA039800F0CEF8044602A9002000F0D2
:101C100060FC204610BC5DF814FB0000D3240008D3
:101C200002E008C8121F08C1002AFAD170477047A5
:101C3000002001E001C1121F002AFBD17047000003
:101C40002DE9FF5FDDE90220010DDDF838B0024328
:101C500018D044F61050A1F2FF3141430D140F98F3
:101C6000012820D0A5EB0B00401C5FEA000A4FF0D2
:101C70000004474EDFF81C91A046504616D5CAF125
:101C8000000728E00F98012443A2012808D0002172
:101C900000980F9BC0E90021C0E90243BDE8FF9F07
:101CA0006FEA0B01F4E7CBF10000DEE7074612E034
:101CB000F80707D02246334640464946FEF78FFBD9
:101CC000804689462246334610461946FEF787FB72
:101CD00004460E467F10002FEAD1DDE90201BAF179
:101CE000000F42464B4602DAFEF779FB01E0FEF7B1
:101CF000E8FB04460E460022284BFEF78BFC03D877
:101D00004FF0FF30014607E00022254B20463146C8
:101D1000FEF7BEFAFEF7C2FD102409E0002C0ADB34
:101D20000A220023FEF7D4FC019B30321A55641EB0
:101D300050EA0102F2D1641C019AC4F11103144467
:101D40000F9A012A03D0012208430DD10AE008436B
:101D500004D000204FF0110B0F9080E7A3EB0B0590
:101D60006D1E0DE05B4504DD4FF0000205F101053D
:101D700004E003DA4FF00002A5F10105002AECD0DF
:101D800000980F99C0E90231C0E9004586E70000DC
:101D9000000024400000F03F300000000000F0434D
:101DA0000000E03F2DE9FF4F95B09B46894606466F
:101DB00000250FE2252877D100242746F84A012183
:101DC000059400E0044316F8013F203B01FA03F0BC
:101DD0001042F7D130782A2811D06FF02F033078D5
:101DE000A0F13002092A16D8059A44F0020402EB49
:101DF000820203EB42021044761C0590EFE759F88B
:101E0000042B0592002A03DA504244F40054059052
:101E100044F00204761C30782E2816D116F8010FF3
:101E200044F004042A280DD06FF02F023078A0F17E
:101E30003003092B09D807EB870302EB4303C718CC
:101E4000761CF3E759F8047B761C30786C280FD0A9
:101E500006DC4C2817D068280DD06A2814D104E07D
:101E6000742810D07A280FD10DE044F400140AE051
:101E700044F4801401E044F440147278824202D1A8
:101E800004F58014761C761C307866280BD013DCA1
:101E9000582877D009DC002875D04528F6D0462888
:101EA000F4D047281AD19DE118E0632835D0642882
:101EB00079D0652812D195E1702873D008DC6728A5
:101EC000F1D069286FD06E280DD06F2806D1B5E00B
:101ED00073282CD0752875D0782874D05A46179955
:101EE00090476D1C75E1C4F30250022809D0032805
:101EF0000DD0D9F8001004280DD00D6009F10409A7
:101F000067E1D9F80010EA17C1E90052F6E7D9F8FD
:101F100000100D80F2E70D70F0E719F8041B8DF842
:101F2000001000208DF80100EA46012003E059F876
:101F300004AB4FF0FF3061074FF0000102D40DE019
:101F400008F101018846B9420FDA8045F8DB1AF83A
:101F500008100029F4D108E008F101018846814207
:101F6000FADB1AF808100029F6D105985B46A0EBB9
:101F7000080721463846179A00F094FA284400EBE7
:101F8000080507E04DE029E10DE01AF8010B5A467B
:101F900017999047B8F10108F7D25B4621463846B9
:101FA000179A13E142E00A220092C4F302524FF062
:101FB000000A022A08D059F804CB032A4FEAEC7130
:101FC0000AD00DE029E02AE009F1070121F007021B
:101FD000F2E802C1914609E00FFA8CFC4FEAEC717D
:101FE000042A03D14FFA8CFC4FEAEC71002907DA7E
:101FF0000A460021DCF1000C61EB02012D2202E017
:10200000220504D52B228DF80420012203E0E207EB
:1020100001D02022F7E7904659E00A2102E0102281
:102020000DE010214FF0000A00910BE010224FF05C
:10203000000A44F004040827009203E008224FF04D
:10204000000A0092C4F30252022A05D059F804CBC8
:102050000021032A08D009E009F1070121F0070255
:10206000F2E802C1914605E01FFA8CFC042A01D176
:102070000CF0FF0C4FF00008220728D5702806D07E
:10208000009B83F0100353EA0A0305D00EE04022C0
:102090008DF80420012208E05CEA010206D030221B
:1020A0008DF804208DF8050002229046009B83F0F5
:1020B000080353EA0A030AD15CEA010201D162076C
:1020C00005D530228DF804204FF001087F1E5828D6
:1020D00004D034A003900EA802900DE036A0F9E7DA
:1020E00053466046009AFEF7F3FA84460398825CF2
:1020F0000298401E029002705CEA0100F0D1029842
:1021000006A9081A00F1200A600702D524F48034D9
:1021100000E00127574502DDA7EB0A0000E00020A0
:1021200000EB0A01009005984144401A0590E00335
:1021300006D45B462146179A059800F0B3F905448A
:10214000002706E001A85A46C05D179990476D1C0C
:102150007F1C4745F6DBE0030CD55B462146179A0A
:10216000059800F09FF9054404E030205A4617997D
:1021700090476D1C0099481E00900029F5DC08E08E
:10218000029802995A460078491C02911799904783
:102190006D1CBAF10001AAF1010AF1DC65E1000051
:1021A000092801003031323334353637383961622D
:1021B00063646566000000003031323334353637F1
:1021C00038394142434445460000000000F058F9C8
:1021D0000544761C307800287FF4ECAD19B0284611
:1021E000BDE8F08F620700D4062709F1070222F04C
:1021F000070CFCE80223E14603F000485FEA080C04
:1022000002D00FF2702C0DE05FEA045C02D50FF2F1
:10221000682C07E05FEAC47C02D00FF2602C01E07A
:10222000AFF2700C4FF0FF3823F00043CDF850C0F0
:1022300065280CD006DC452809D046281DD0472843
:102240003DD13DE0662818D067287ED138E00021D6
:10225000112F01DB112000E0781CCDE9000106A957
:102260000EA8FFF7EDFCDDE90F010E9A03910021A6
:10227000009207F1010A04914DE04FF000400097F1
:10228000CDE9011006A90EA8FFF7DAFCDDE90F027F
:1022900003920E9B11990022DDF80CA0009304928A
:1022A00011B9791C00EB010AB7EB0A0004D4C0F1A4
:1022B000FF3007F1010A0490AAEB0700019044E007
:1022C000012F00DA01270021112F01DD112000E08C
:1022D0003846CDE9000106A90EA8FFF7B1FCDDE9FB
:1022E0000F010E9A0391002104910092BA46210732
:1022F0000CD40399514500DA8A46BAF1010F05DD85
:10230000009AAAF10101515C302908D0B84202DAE2
:1023100010F1040F06DA0121CDE9011015E0AAF150
:102320000101E9E7002805DC049901440491AAEBC6
:10233000000102E0411C514500DD8A460499401A23
:10234000401C01904FF000400290200704D40198F7
:10235000504501DBCDF8048000208DF84F00029835
:102360000DF14F07B0F1004F25D02B200E900298B1
:102370004FF0020800280CDA404202902D200E9007
:1023800007E00A210298FEF78DF93031029007F834
:10239000011DB8F10001A8F10108F2DC0298002843
:1023A000EFD1791E0E980870307800F0200040F0D0
:1023B000450007F8020D12A8C01B00F10708149889
:1023C000007800B1012000EB0A01019801EBE071F7
:1023D00005984144401A401E0590E00306D45B4630
:1023E0002146179A059800F05DF805441498007886
:1023F00018B15A46179990476D1CE00324D55B46E7
:102400002146179A059800F04DF805441CE0049801
:10241000002807DBDDE90301884203DD0098405C0A
:10242000179901E0179930205A469047049805F112
:102430000105401C04900198401E019004D12E20FB
:102440005A46179990476D1CBAF10001AAF1010A8A
:10245000DDDC05E017F8010B5A46179990476D1C13
:10246000B8F10001A8F10108F4DC5B462146179A97
:102470000598ABE62D0000002B00000020000000B6
:102480002DE9F041044600251E461746880404D471
:1024900005E039462020B0476D1C641EF9D528465A
:1024A000BDE8F0812DE9F041044600251E46904626
:1024B000C80301D5302700E02027880404D505E0B3
:1024C00041463846B0476D1C641EF9D52846BDE824
:1024D000F0810A68531C0B60107070472DE9F041C1
:1024E00007460C4615461E46DDF8188000F016F823
:1024F00000F01EF8FEF70CFA284600F0D7FB38462D
:1025000000F014FC304600F0BFFB404600F0AAFB90
:10251000204600F0D7FBBDE8F081000010B5012097
:1025200002490860502000F001F910BD90012142DD
:1025300010B5002002490860502000F0F7F810BDE7
:10254000900121422DE9F04F87B0234800686428AC
:1025500038DA00BF214800680128FBD000F056FBA4
:102560008246AAF50000FEF724F88346FEF726F817
:102570001B4A1C4BCDE90001FDF731FF00221A4B2D
:10258000CDE90201FDF79DFF80460022174BFDF7C4
:1025900026FFCDE9040116480068FEF70FF806464D
:1025A000DDE90423FDF774FE0446FEF74BF81049FD
:1025B000086009480068401C07490860002007B00F
:1025C000BDE8F08F0B490A480068FDF723FE084973
:1025D000086008460068F2E7480000201801214220
:1025E0003D0AD7A3703D13400000D04100408F400A
:1025F000440000200000C84210B5FFF7A3FF0549C2
:10260000044608600021FEF739F802D00120024993
:10261000087010BD3C0000204000002010B50446AA
:1026200040E02078401EE11C085C5A2837D1217810
:10263000E01C405CA52832D160782178401A08D58A
:10264000607800F580702178401A401C1849088095
:1026500005E060782178401A401C1549088014482C
:1026600000880B280BDB2078401EC1B20B22E01C37
:1026700000F0E6F82078401C2070012010BD0D48C5
:102680000068401C0B49086008460068B0F5FA6F06
:1026900003DB00200860607820700020EEE72078DF
:1026A000401C2070207861788842BAD10020E5E78C
:1026B000660000209400002030B5024600200EE0A5
:1026C000034600EBD3746410A0EB44041CB900254E
:1026D000401CD55403E00B781354401C491C0B7864
:1026E000002BEDD130BD000010B56FF00400FEF7F7
:1026F000C9FC0A4800680A49B0FBF1F009490870B2
:102700000846007800EB4001C1EBC0104FF6FF71A6
:1027100001EAC0000449088010BD0000000000204C
:1027200000127A00280000202A0000200146114AE9
:1027300012884A434FF0E0235A6100229A611A46F8
:10274000126942F001021A6100BF4FF0E0221069E5
:1027500000F001021AB100F48032002AF5D04FF0E7
:10276000E022126922F001024FF0E0231A610022F8
:102770009A6170472A0000202DE9F04100F046FAE6
:102780000546FDF716FF04464FF07E512046FDF743
:102790007FFF21D2114801682046FDF735FD07462D
:1027A000FDF70CFF054600224FF08043FDF732FF96
:1027B0000ED9214609480068FDF726FD0746FDF7BA
:1027C000FDFE054600224FF08043FDF723FF03D8AE
:1027D00002480068BDE8F0812046FBE73000002099
:1027E0000020024981F8000270470000E400002048
:1027F00010B5002821D0114B0022001F196803E0FA
:10280000814203D80A4649680029F9D152B11368B8
:10281000841A9C4204D1006818441060104602E0FB
:10282000506000E0186039B102680B1A934203D17E
:102830000B681A4402604968416010BDDC0000204A
:1028400030B50346002007E00C464D1CE9B21C5D84
:10285000034D2C54441CE0B29042F5DB30BD000027
:10286000EE0500202DE9F04F87B04FF00009FEF78C
:1028700059F9844908600968A1F50000FDF799FE3F
:102880000190FDF79BFE07467F4A804BFDF7A7FDB1
:1028900000227F4BCDE90201FDF713FE0546002221
:1028A0007C4BFDF79CFD8246FDF7CCFE7A49086023
:1028B00008460068FDF782FE8246784A784BFDF7AD
:1028C0008EFD0546774A784BFDF783FD0746FDF7F9
:1028D000B9FE7149086075496F480068FDF7CEFE82
:1028E00002D800206C49086071490868C11700EBE4
:1028F0005171C910A0EBC10100297DD16D4800685C
:10290000654908606C480068401C6B4908600121FB
:102910002820FDF719FC044601211420FDF714FCC2
:10292000059001212820FDF70FFC04906348006802
:10293000022816D162480078012803D000205649A9
:10294000086002E000205E49087053480068FDF707
:1029500035FE05462A460B465AA10598FFF74CF965
:102960004DE055480068052849D181074A4800686C
:10297000FDF78EFE30D25548016847480068FDF7E4
:1029800043FC5349086008460068FDF717FE21F034
:102990000041054600224FF08043FDF723FE0BD295
:1029A0004A480068FDF70AFE05462A460B4645A13F
:1029B0000598FFF721F91DE037480068FDF7FEFD97
:1029C00005462A460B463FA10598FFF715F9324800
:1029D00000683E4908600DE000202F490860084665
:1029E0000068FDF7EBFD05462A460B4635A1059824
:1029F000FFF702F9002000E02FE02F490860DDE931
:102A00000401FFF759FE814609F0FF010598FEF722
:102A10000BFE5A202070A520607009F10300A07001
:102A20008220E0701120207160714A46A01D049937
:102A3000FDF778FB09F10600C1B22046FEF760FD04
:102A40000598FFF7D5FE2046FFF7D2FE0498FFF762
:102A5000CFFE0020164908600CE00F4801681548B9
:102A60000068FDF77FFB05464FF08041FDF7D2FB84
:102A7000104908600E480068401C0D49086007B006
:102A8000BDE8F08F2C0000203D0AD7A3703D134015
:102A90000000D04100408F40300000205C8FC2F524
:102AA000A862A640B81E85EB717CC640000040407D
:102AB000500000204C000020580000208C00002016
:102AC00041000020252E32660D0A0000380000204B
:102AD0003400002008B5FEF7EBFAFFF705FE4FF4CF
:102AE000A060FEF79BF8FEF79FF94FF4165000F038
:102AF0000DFAFEF761F9FFF773FEFFF7F5FD4FF4EE
:102B0000E13000F059F94FF4E13000F0A9F9632108
:102B100040F2CF20FEF79EFB002003460222032155
:102B200000900846FFF7DAFC33E0FDF743FF194851
:102B3000FFF774FD012802D11748FEF7C5FE1748BC
:102B40000078012825D100201449087001210803CC
:102B5000FEF71AF90120FFF7E9FD02211020FEF728
:102B600013F90120FFF7E2FD022141F21000FEF708
:102B70000BF90120FFF7DAFD022141F21200FEF706
:102B800003F90120FFF7D2FD022141F23400FEF7E4
:102B9000FBF8CAE7D709002000380140C400002034
:102BA000F0B50B30154D20F007010024144A0FE05A
:102BB00003688B420BD38B4205D95E1A43184768D2
:102BC000C3E9006700E04368136002C004E0021D2F
:102BD00010680028ECD12046002802D1286808B1EE
:102BE0000020F0BD064A07481060074A121A22F07A
:102BF0000702C0E9002401202860D7E7E000002098
:102C0000DC000020E41A0020E01C0020002000214D
:102C10000BE00022064B1A604000064AD2F8182149
:102C2000104301221A604A1CD1B21829F1DB704707
:102C30009401214200002142094A92F8003202F533
:102C4000807242F82300064A92F80022044B43F8AF
:102C500022101A4692F80022521C83F80022704774
:102C6000E400002018B90121064A116008E001289B
:102C700003D10021034A116002E00121014A1160E1
:102C8000704700008001214218B90021064A1160F6
:102C900008E0012803D10121034A116002E000216C
:102CA000014A11607047000080012242012803D1CF
:102CB0000021034A116002E00121014A11607047BE
:102CC0008401224230B101280BD0022811D0032800
:102CD0001ED116E00021134A1160134AC2F88C116C
:102CE0001DE001210F4A116000210F4AC2F88C112A
:102CF00015E000210B4A116001210B4AC2F88C112A
:102D00000DE00121074A1160074AC2F88C1106E064
:102D10000021044A1160044AC2F88C1100BF00BFB0
:102D200070470000880122420000224230B1012891
:102D30000BD0022811D003281ED115E00121134A1F
:102D40001160134AC2F894111EE000210F4A11606D
:102D500001210F4AC2F8941116E000210B4A1160BC
:102D60000B4AC2F894110FE00121084A11600021BA
:102D7000074AC2F8941107E00021044A11600121BA
:102D8000034AC2F8941100BF00BF704780812142FE
:102D90000000224230B503460C46002107E0585C93
:102DA000655CA84201D0002030BD481CC1B29142F0
:102DB000F5DB0120F8E7000010B586B004460121DC
:102DC00044F20400FDF756FF2348FEF767FC4FF47A
:102DD0000070ADF8140003208DF8160018208DF84F
:102DE000170005A91D48FDF70DFE4FF48060ADF8F2
:102DF000140004208DF8170005A91848FDF702FEFD
:102E000025208DF8000003208DF801008DF80200C8
:102E100001208DF803006846FDF7C8FE01940020EC
:102E2000ADF80800ADF80A00ADF80C00ADF81000E0
:102E30000C20ADF80E0001A90748FEF7D9FC0122CD
:102E400040F225510448FEF7AEFC01210248FEF78E
:102E500018FC06B010BD0000003801400008014019
:102E600010B586B0044601218804FDF7E3FE012178
:102E70002820FDF7FFFE2348FEF710FC4FF480608A
:102E8000ADF8140003208DF8160018208DF81700F7
:102E900005A91D48FDF7B6FD4FF40060ADF814001C
:102EA00004208DF8170005A91748FDF7ABFD272072
:102EB0008DF8000003208DF801008DF8020001203C
:102EC0008DF803006846FDF771FE01940020ADF80F
:102ED0000800ADF80A00ADF80C00ADF810000C20A9
:102EE000ADF80E0001A90748FEF782FC012240F26E
:102EF00025510448FEF757FC01210248FEF7C1FBAB
:102F000006B010BD00480040000C014010B586B06E
:102F10000446012144F20400FDF7ACFE0420ADF8A4
:102F2000140003208DF8160018208DF8170005A94D
:102F30001B48FDF767FD0820ADF8140004208DF84C
:102F4000170005A91648FDF75DFD25208DF8000046
:102F500003208DF801008DF8020001208DF8030098
:102F60006846FDF723FE01940020ADF80800ADF897
:102F70000A00ADF80C00ADF810000C20ADF80E0002
:102F800001A90848FEF734FC012240F2255105480A
:102F9000FEF709FC01210348FEF773FB06B010BDE4
:102FA0000008014000440040C82F00080000002035
:102FB000E4000000201C0008AC300008E400002001
:102FC000FC1F0000301C000800A24A0400000000A2
:102FD00000000000010203040607080900000000C9
:102FE000010203040102030406070809020406089B
:102FF00000000000000000000000000000000000D1
:1030000000000000000000000000000000000000C0
:1030100000000000000000000000000000000000B0
:1030200000000000000000000000000000000000A0
:103030005AA50683105AA5088300105AA5088310C4
:10304000105AA5088310125AA506831034000000F8
:103050000000000000000000000000000000000070
:1030600000000200000000008025000000000400B5
:10307000000000000000000001030CC1010000007E
:103080000800000000000000000000000000000038
:103090000000000000000000000000000000000030
:0C30A00000000000000000000000000024
:04000005080000ED02
:00000001FF
